{
  "_format": "hh-sol-artifact-1",
  "contractName": "EscrowNFT",
  "sourceName": "contracts/EscrowNFT.sol",
  "abi": [
    {
      "inputs": [],
      "name": "ReentrancyGuardReentrantCall",
      "type": "error"
    },
    {
      "anonymous": false,
      "inputs": [
        {
          "indexed": false,
          "internalType": "uint256",
          "name": "escrowId",
          "type": "uint256"
        }
      ],
      "name": "EscrowCancelled",
      "type": "event"
    },
    {
      "anonymous": false,
      "inputs": [
        {
          "indexed": false,
          "internalType": "uint256",
          "name": "escrowId",
          "type": "uint256"
        }
      ],
      "name": "EscrowCompleted",
      "type": "event"
    },
    {
      "anonymous": false,
      "inputs": [
        {
          "indexed": false,
          "internalType": "uint256",
          "name": "escrowId",
          "type": "uint256"
        },
        {
          "indexed": true,
          "internalType": "address",
          "name": "seller",
          "type": "address"
        },
        {
          "indexed": true,
          "internalType": "address",
          "name": "nft",
          "type": "address"
        },
        {
          "indexed": false,
          "internalType": "uint256",
          "name": "tokenId",
          "type": "uint256"
        },
        {
          "indexed": false,
          "internalType": "uint256",
          "name": "price",
          "type": "uint256"
        },
        {
          "indexed": false,
          "internalType": "address",
          "name": "paymentToken",
          "type": "address"
        }
      ],
      "name": "EscrowCreated",
      "type": "event"
    },
    {
      "anonymous": false,
      "inputs": [
        {
          "indexed": false,
          "internalType": "uint256",
          "name": "escrowId",
          "type": "uint256"
        }
      ],
      "name": "NFTDeposited",
      "type": "event"
    },
    {
      "anonymous": false,
      "inputs": [
        {
          "indexed": false,
          "internalType": "uint256",
          "name": "escrowId",
          "type": "uint256"
        }
      ],
      "name": "PaymentDeposited",
      "type": "event"
    },
    {
      "inputs": [
        {
          "internalType": "uint256",
          "name": "escrowId",
          "type": "uint256"
        }
      ],
      "name": "cancelEscrow",
      "outputs": [],
      "stateMutability": "nonpayable",
      "type": "function"
    },
    {
      "inputs": [
        {
          "internalType": "address",
          "name": "_buyer",
          "type": "address"
        },
        {
          "internalType": "address",
          "name": "_nftAddress",
          "type": "address"
        },
        {
          "internalType": "uint256",
          "name": "_tokenId",
          "type": "uint256"
        },
        {
          "internalType": "address",
          "name": "_paymentToken",
          "type": "address"
        },
        {
          "internalType": "uint256",
          "name": "_price",
          "type": "uint256"
        }
      ],
      "name": "createEscrow",
      "outputs": [
        {
          "internalType": "uint256",
          "name": "",
          "type": "uint256"
        }
      ],
      "stateMutability": "nonpayable",
      "type": "function"
    },
    {
      "inputs": [
        {
          "internalType": "uint256",
          "name": "escrowId",
          "type": "uint256"
        }
      ],
      "name": "depositNFT",
      "outputs": [],
      "stateMutability": "nonpayable",
      "type": "function"
    },
    {
      "inputs": [
        {
          "internalType": "uint256",
          "name": "escrowId",
          "type": "uint256"
        }
      ],
      "name": "depositPayment",
      "outputs": [],
      "stateMutability": "nonpayable",
      "type": "function"
    },
    {
      "inputs": [],
      "name": "escrowCounter",
      "outputs": [
        {
          "internalType": "uint256",
          "name": "",
          "type": "uint256"
        }
      ],
      "stateMutability": "view",
      "type": "function"
    },
    {
      "inputs": [
        {
          "internalType": "uint256",
          "name": "",
          "type": "uint256"
        }
      ],
      "name": "escrows",
      "outputs": [
        {
          "internalType": "address",
          "name": "seller",
          "type": "address"
        },
        {
          "internalType": "address",
          "name": "buyer",
          "type": "address"
        },
        {
          "internalType": "address",
          "name": "nftAddress",
          "type": "address"
        },
        {
          "internalType": "uint256",
          "name": "tokenId",
          "type": "uint256"
        },
        {
          "internalType": "address",
          "name": "paymentToken",
          "type": "address"
        },
        {
          "internalType": "uint256",
          "name": "price",
          "type": "uint256"
        },
        {
          "internalType": "bool",
          "name": "nftDeposited",
          "type": "bool"
        },
        {
          "internalType": "bool",
          "name": "paymentDeposited",
          "type": "bool"
        },
        {
          "internalType": "bool",
          "name": "completed",
          "type": "bool"
        },
        {
          "internalType": "bool",
          "name": "cancelled",
          "type": "bool"
        }
      ],
      "stateMutability": "view",
      "type": "function"
    }
  ],
  "bytecode": "0x6080604052348015600f57600080fd5b506001600081905550611ebb806100276000396000f3fe608060405234801561001057600080fd5b50600436106100625760003560e01c8063012f52ee146100675780636b749c47146100a0578063a6718516146100bc578063c7ceafea146100ec578063e01824361461010a578063e91a7ca614610126575b600080fd5b610081600480360381019061007c9190611525565b610142565b6040516100979a999897969594939291906115bd565b60405180910390f35b6100ba60048036038101906100b59190611525565b61024a565b005b6100d660048036038101906100d19190611685565b61060a565b6040516100e39190611700565b60405180910390f35b6100f4610b1a565b6040516101019190611700565b60405180910390f35b610124600480360381019061011f9190611525565b610b20565b005b610140600480360381019061013b9190611525565b610f4b565b005b60026020528060005260406000206000915090508060000160009054906101000a900473ffffffffffffffffffffffffffffffffffffffff16908060010160009054906101000a900473ffffffffffffffffffffffffffffffffffffffff16908060020160009054906101000a900473ffffffffffffffffffffffffffffffffffffffff16908060030154908060040160009054906101000a900473ffffffffffffffffffffffffffffffffffffffff16908060050154908060060160009054906101000a900460ff16908060060160019054906101000a900460ff16908060060160029054906101000a900460ff16908060060160039054906101000a900460ff1690508a565b61025261120a565b806002600082815260200190815260200160002060060160029054906101000a900460ff16156102b7576040517f08c379a00000000000000000000000000000000000000000000000000000000081526004016102ae90611778565b60405180910390fd5b816002600082815260200190815260200160002060060160039054906101000a900460ff161561031c576040517f08c379a0000000000000000000000000000000000000000000000000000000008152600401610313906117e4565b60405180910390fd5b6000600260008581526020019081526020016000209050600073ffffffffffffffffffffffffffffffffffffffff168160010160009054906101000a900473ffffffffffffffffffffffffffffffffffffffff1673ffffffffffffffffffffffffffffffffffffffff1614610422578060010160009054906101000a900473ffffffffffffffffffffffffffffffffffffffff1673ffffffffffffffffffffffffffffffffffffffff163373ffffffffffffffffffffffffffffffffffffffff161461041d576040517f08c379a000000000000000000000000000000000000000000000000000000000815260040161041490611876565b60405180910390fd5b610466565b338160010160006101000a81548173ffffffffffffffffffffffffffffffffffffffff021916908373ffffffffffffffffffffffffffffffffffffffff1602179055505b8060060160019054906101000a900460ff16156104b8576040517f08c379a00000000000000000000000000000000000000000000000000000000081526004016104af906118e2565b60405180910390fd5b8060040160009054906101000a900473ffffffffffffffffffffffffffffffffffffffff1673ffffffffffffffffffffffffffffffffffffffff166323b872dd333084600501546040518463ffffffff1660e01b815260040161051d93929190611902565b6020604051808303816000875af115801561053c573d6000803e3d6000fd5b505050506040513d601f19601f820116820180604052508101906105609190611965565b61059f576040517f08c379a0000000000000000000000000000000000000000000000000000000008152600401610596906119de565b60405180910390fd5b60018160060160016101000a81548160ff0219169083151502179055507f49bd70090edab93c612ae021b6f3fa28a2aa80bf732b19d31a90eae8c5125bc1846040516105eb9190611700565b60405180910390a16105fc84611250565b5050506106076114e0565b50565b60008073ffffffffffffffffffffffffffffffffffffffff168573ffffffffffffffffffffffffffffffffffffffff160361067a576040517f08c379a000000000000000000000000000000000000000000000000000000000815260040161067190611a4a565b60405180910390fd5b600073ffffffffffffffffffffffffffffffffffffffff168373ffffffffffffffffffffffffffffffffffffffff16036106e9576040517f08c379a00000000000000000000000000000000000000000000000000000000081526004016106e090611ab6565b60405180910390fd5b3373ffffffffffffffffffffffffffffffffffffffff168573ffffffffffffffffffffffffffffffffffffffff16636352211e866040518263ffffffff1660e01b81526004016107399190611700565b602060405180830381865afa158015610756573d6000803e3d6000fd5b505050506040513d601f19601f8201168201806040525081019061077a9190611aeb565b73ffffffffffffffffffffffffffffffffffffffff16146107d0576040517f08c379a00000000000000000000000000000000000000000000000000000000081526004016107c790611b64565b60405180910390fd5b60008211610813576040517f08c379a000000000000000000000000000000000000000000000000000000000815260040161080a90611bd0565b60405180910390fd5b6001600081548092919061082690611c1f565b91905055506040518061014001604052803373ffffffffffffffffffffffffffffffffffffffff1681526020018773ffffffffffffffffffffffffffffffffffffffff1681526020018673ffffffffffffffffffffffffffffffffffffffff1681526020018581526020018473ffffffffffffffffffffffffffffffffffffffff1681526020018381526020016000151581526020016000151581526020016000151581526020016000151581525060026000600154815260200190815260200160002060008201518160000160006101000a81548173ffffffffffffffffffffffffffffffffffffffff021916908373ffffffffffffffffffffffffffffffffffffffff16021790555060208201518160010160006101000a81548173ffffffffffffffffffffffffffffffffffffffff021916908373ffffffffffffffffffffffffffffffffffffffff16021790555060408201518160020160006101000a81548173ffffffffffffffffffffffffffffffffffffffff021916908373ffffffffffffffffffffffffffffffffffffffff1602179055506060820151816003015560808201518160040160006101000a81548173ffffffffffffffffffffffffffffffffffffffff021916908373ffffffffffffffffffffffffffffffffffffffff16021790555060a0820151816005015560c08201518160060160006101000a81548160ff02191690831515021790555060e08201518160060160016101000a81548160ff0219169083151502179055506101008201518160060160026101000a81548160ff0219169083151502179055506101208201518160060160036101000a81548160ff0219169083151502179055509050508473ffffffffffffffffffffffffffffffffffffffff163373ffffffffffffffffffffffffffffffffffffffff167fc74eacceba2e61e3a12f6efe836a97068ff990882e14fb3887033b6fcac1b820600154878688604051610b049493929190611c67565b60405180910390a3600154905095945050505050565b60015481565b610b2861120a565b806002600082815260200190815260200160002060060160029054906101000a900460ff1615610b8d576040517f08c379a0000000000000000000000000000000000000000000000000000000008152600401610b8490611778565b60405180910390fd5b816002600082815260200190815260200160002060060160039054906101000a900460ff1615610bf2576040517f08c379a0000000000000000000000000000000000000000000000000000000008152600401610be9906117e4565b60405180910390fd5b60006002600085815260200190815260200160002090508060000160009054906101000a900473ffffffffffffffffffffffffffffffffffffffff1673ffffffffffffffffffffffffffffffffffffffff163373ffffffffffffffffffffffffffffffffffffffff161480610cb657508060010160009054906101000a900473ffffffffffffffffffffffffffffffffffffffff1673ffffffffffffffffffffffffffffffffffffffff163373ffffffffffffffffffffffffffffffffffffffff16145b610cf5576040517f08c379a0000000000000000000000000000000000000000000000000000000008152600401610cec90611cf8565b60405180910390fd5b8060060160009054906101000a900460ff1615610dc8578060020160009054906101000a900473ffffffffffffffffffffffffffffffffffffffff1673ffffffffffffffffffffffffffffffffffffffff166323b872dd308360000160009054906101000a900473ffffffffffffffffffffffffffffffffffffffff1684600301546040518463ffffffff1660e01b8152600401610d9593929190611902565b600060405180830381600087803b158015610daf57600080fd5b505af1158015610dc3573d6000803e3d6000fd5b505050505b8060060160019054906101000a900460ff1615610ee9578060040160009054906101000a900473ffffffffffffffffffffffffffffffffffffffff1673ffffffffffffffffffffffffffffffffffffffff1663a9059cbb8260010160009054906101000a900473ffffffffffffffffffffffffffffffffffffffff1683600501546040518363ffffffff1660e01b8152600401610e66929190611d18565b6020604051808303816000875af1158015610e85573d6000803e3d6000fd5b505050506040513d601f19601f82011682018060405250810190610ea99190611965565b610ee8576040517f08c379a0000000000000000000000000000000000000000000000000000000008152600401610edf90611d8d565b60405180910390fd5b5b60018160060160036101000a81548160ff0219169083151502179055507f0d977c6b1a383ac5ce532b4a668d0ef9ad38478e1a5ff28abb221f4b682b264384604051610f359190611700565b60405180910390a1505050610f486114e0565b50565b806002600082815260200190815260200160002060060160029054906101000a900460ff1615610fb0576040517f08c379a0000000000000000000000000000000000000000000000000000000008152600401610fa790611778565b60405180910390fd5b816002600082815260200190815260200160002060060160039054906101000a900460ff1615611015576040517f08c379a000000000000000000000000000000000000000000000000000000000815260040161100c906117e4565b60405180910390fd5b60006002600085815260200190815260200160002090508060000160009054906101000a900473ffffffffffffffffffffffffffffffffffffffff1673ffffffffffffffffffffffffffffffffffffffff163373ffffffffffffffffffffffffffffffffffffffff16146110be576040517f08c379a00000000000000000000000000000000000000000000000000000000081526004016110b590611df9565b60405180910390fd5b8060060160009054906101000a900460ff1615611110576040517f08c379a000000000000000000000000000000000000000000000000000000000815260040161110790611e65565b60405180910390fd5b8060020160009054906101000a900473ffffffffffffffffffffffffffffffffffffffff1673ffffffffffffffffffffffffffffffffffffffff166323b872dd333084600301546040518463ffffffff1660e01b815260040161117593929190611902565b600060405180830381600087803b15801561118f57600080fd5b505af11580156111a3573d6000803e3d6000fd5b5050505060018160060160006101000a81548160ff0219169083151502179055507ff36d7a61da5869f1f725b62b3414422372ff984566d321f9758ec768fb859a88846040516111f39190611700565b60405180910390a161120484611250565b50505050565b600260005403611246576040517f3ee5aeb500000000000000000000000000000000000000000000000000000000815260040160405180910390fd5b6002600081905550565b61125861120a565b60006002600083815260200190815260200160002090508060060160009054906101000a900460ff16801561129b57508060060160019054906101000a900460ff165b80156112b657508060060160029054906101000a900460ff16155b156114d45760018160060160026101000a81548160ff0219169083151502179055508060020160009054906101000a900473ffffffffffffffffffffffffffffffffffffffff1673ffffffffffffffffffffffffffffffffffffffff166323b872dd308360010160009054906101000a900473ffffffffffffffffffffffffffffffffffffffff1684600301546040518463ffffffff1660e01b815260040161136193929190611902565b600060405180830381600087803b15801561137b57600080fd5b505af115801561138f573d6000803e3d6000fd5b505050508060040160009054906101000a900473ffffffffffffffffffffffffffffffffffffffff1673ffffffffffffffffffffffffffffffffffffffff1663a9059cbb8260000160009054906101000a900473ffffffffffffffffffffffffffffffffffffffff1683600501546040518363ffffffff1660e01b815260040161141a929190611d18565b6020604051808303816000875af1158015611439573d6000803e3d6000fd5b505050506040513d601f19601f8201168201806040525081019061145d9190611965565b61149c576040517f08c379a0000000000000000000000000000000000000000000000000000000008152600401611493906119de565b60405180910390fd5b7f9285bd636dda01bef18996aa38303bb742f6c67a6941646dddb17630cb492c2e826040516114cb9190611700565b60405180910390a15b506114dd6114e0565b50565b6001600081905550565b600080fd5b6000819050919050565b611502816114ef565b811461150d57600080fd5b50565b60008135905061151f816114f9565b92915050565b60006020828403121561153b5761153a6114ea565b5b600061154984828501611510565b91505092915050565b600073ffffffffffffffffffffffffffffffffffffffff82169050919050565b600061157d82611552565b9050919050565b61158d81611572565b82525050565b61159c816114ef565b82525050565b60008115159050919050565b6115b7816115a2565b82525050565b6000610140820190506115d3600083018d611584565b6115e0602083018c611584565b6115ed604083018b611584565b6115fa606083018a611593565b6116076080830189611584565b61161460a0830188611593565b61162160c08301876115ae565b61162e60e08301866115ae565b61163c6101008301856115ae565b61164a6101208301846115ae565b9b9a5050505050505050505050565b61166281611572565b811461166d57600080fd5b50565b60008135905061167f81611659565b92915050565b600080600080600060a086880312156116a1576116a06114ea565b5b60006116af88828901611670565b95505060206116c088828901611670565b94505060406116d188828901611510565b93505060606116e288828901611670565b92505060806116f388828901611510565b9150509295509295909350565b60006020820190506117156000830184611593565b92915050565b600082825260208201905092915050565b7f457363726f7720616c726561647920636f6d706c657465640000000000000000600082015250565b600061176260188361171b565b915061176d8261172c565b602082019050919050565b6000602082019050818103600083015261179181611755565b9050919050565b7f457363726f772063616e63656c6c656400000000000000000000000000000000600082015250565b60006117ce60108361171b565b91506117d982611798565b602082019050919050565b600060208201905081810360008301526117fd816117c1565b9050919050565b7f4f6e6c792074686520646566696e65642062757965722063616e206465706f7360008201527f6974207061796d656e7400000000000000000000000000000000000000000000602082015250565b6000611860602a8361171b565b915061186b82611804565b604082019050919050565b6000602082019050818103600083015261188f81611853565b9050919050565b7f5061796d656e7420616c7265616479206465706f736974656400000000000000600082015250565b60006118cc60198361171b565b91506118d782611896565b602082019050919050565b600060208201905081810360008301526118fb816118bf565b9050919050565b60006060820190506119176000830186611584565b6119246020830185611584565b6119316040830184611593565b949350505050565b611942816115a2565b811461194d57600080fd5b50565b60008151905061195f81611939565b92915050565b60006020828403121561197b5761197a6114ea565b5b600061198984828501611950565b91505092915050565b7f5061796d656e74207472616e73666572206661696c6564000000000000000000600082015250565b60006119c860178361171b565b91506119d382611992565b602082019050919050565b600060208201905081810360008301526119f7816119bb565b9050919050565b7f496e76616c6964204e4654206164647265737300000000000000000000000000600082015250565b6000611a3460138361171b565b9150611a3f826119fe565b602082019050919050565b60006020820190508181036000830152611a6381611a27565b9050919050565b7f496e76616c6964207061796d656e7420746f6b656e0000000000000000000000600082015250565b6000611aa060158361171b565b9150611aab82611a6a565b602082019050919050565b60006020820190508181036000830152611acf81611a93565b9050919050565b600081519050611ae581611659565b92915050565b600060208284031215611b0157611b006114ea565b5b6000611b0f84828501611ad6565b91505092915050565b7f53656e646572206973206e6f74204e4654206f776e6572000000000000000000600082015250565b6000611b4e60178361171b565b9150611b5982611b18565b602082019050919050565b60006020820190508181036000830152611b7d81611b41565b9050919050565b7f5072696365206d7573742062652067726561746572207468616e203000000000600082015250565b6000611bba601c8361171b565b9150611bc582611b84565b602082019050919050565b60006020820190508181036000830152611be981611bad565b9050919050565b7f4e487b7100000000000000000000000000000000000000000000000000000000600052601160045260246000fd5b6000611c2a826114ef565b91507fffffffffffffffffffffffffffffffffffffffffffffffffffffffffffffffff8203611c5c57611c5b611bf0565b5b600182019050919050565b6000608082019050611c7c6000830187611593565b611c896020830186611593565b611c966040830185611593565b611ca36060830184611584565b95945050505050565b7f4e6f7420617574686f72697a6564000000000000000000000000000000000000600082015250565b6000611ce2600e8361171b565b9150611ced82611cac565b602082019050919050565b60006020820190508181036000830152611d1181611cd5565b9050919050565b6000604082019050611d2d6000830185611584565b611d3a6020830184611593565b9392505050565b7f526566756e64207472616e73666572206661696c656400000000000000000000600082015250565b6000611d7760168361171b565b9150611d8282611d41565b602082019050919050565b60006020820190508181036000830152611da681611d6a565b9050919050565b7f4f6e6c792073656c6c65722063616e206465706f736974204e46540000000000600082015250565b6000611de3601b8361171b565b9150611dee82611dad565b602082019050919050565b60006020820190508181036000830152611e1281611dd6565b9050919050565b7f4e465420616c7265616479206465706f73697465640000000000000000000000600082015250565b6000611e4f60158361171b565b9150611e5a82611e19565b602082019050919050565b60006020820190508181036000830152611e7e81611e42565b905091905056fea26469706673582212204f5ce42bdfb28b04f9fc140d9b156770e7ae6ab1c23cc8f63b13565c8e0a9f5164736f6c634300081e0033",
  "linkReferences": {},
  "deployedLinkReferences": {}
}