{
  "_format": "hh-sol-artifact-1",
  "contractName": "VehicleNFT",
  "sourceName": "contracts/VehicleNFT.sol",
  "abi": [
    {
      "inputs": [],
      "stateMutability": "nonpayable",
      "type": "constructor"
    },
    {
      "inputs": [
        {
          "internalType": "address",
          "name": "sender",
          "type": "address"
        },
        {
          "internalType": "uint256",
          "name": "tokenId",
          "type": "uint256"
        },
        {
          "internalType": "address",
          "name": "owner",
          "type": "address"
        }
      ],
      "name": "ERC721IncorrectOwner",
      "type": "error"
    },
    {
      "inputs": [
        {
          "internalType": "address",
          "name": "operator",
          "type": "address"
        },
        {
          "internalType": "uint256",
          "name": "tokenId",
          "type": "uint256"
        }
      ],
      "name": "ERC721InsufficientApproval",
      "type": "error"
    },
    {
      "inputs": [
        {
          "internalType": "address",
          "name": "approver",
          "type": "address"
        }
      ],
      "name": "ERC721InvalidApprover",
      "type": "error"
    },
    {
      "inputs": [
        {
          "internalType": "address",
          "name": "operator",
          "type": "address"
        }
      ],
      "name": "ERC721InvalidOperator",
      "type": "error"
    },
    {
      "inputs": [
        {
          "internalType": "address",
          "name": "owner",
          "type": "address"
        }
      ],
      "name": "ERC721InvalidOwner",
      "type": "error"
    },
    {
      "inputs": [
        {
          "internalType": "address",
          "name": "receiver",
          "type": "address"
        }
      ],
      "name": "ERC721InvalidReceiver",
      "type": "error"
    },
    {
      "inputs": [
        {
          "internalType": "address",
          "name": "sender",
          "type": "address"
        }
      ],
      "name": "ERC721InvalidSender",
      "type": "error"
    },
    {
      "inputs": [
        {
          "internalType": "uint256",
          "name": "tokenId",
          "type": "uint256"
        }
      ],
      "name": "ERC721NonexistentToken",
      "type": "error"
    },
    {
      "inputs": [
        {
          "internalType": "address",
          "name": "owner",
          "type": "address"
        }
      ],
      "name": "OwnableInvalidOwner",
      "type": "error"
    },
    {
      "inputs": [
        {
          "internalType": "address",
          "name": "account",
          "type": "address"
        }
      ],
      "name": "OwnableUnauthorizedAccount",
      "type": "error"
    },
    {
      "anonymous": false,
      "inputs": [
        {
          "indexed": true,
          "internalType": "address",
          "name": "owner",
          "type": "address"
        },
        {
          "indexed": true,
          "internalType": "address",
          "name": "approved",
          "type": "address"
        },
        {
          "indexed": true,
          "internalType": "uint256",
          "name": "tokenId",
          "type": "uint256"
        }
      ],
      "name": "Approval",
      "type": "event"
    },
    {
      "anonymous": false,
      "inputs": [
        {
          "indexed": true,
          "internalType": "address",
          "name": "owner",
          "type": "address"
        },
        {
          "indexed": true,
          "internalType": "address",
          "name": "operator",
          "type": "address"
        },
        {
          "indexed": false,
          "internalType": "bool",
          "name": "approved",
          "type": "bool"
        }
      ],
      "name": "ApprovalForAll",
      "type": "event"
    },
    {
      "anonymous": false,
      "inputs": [
        {
          "indexed": false,
          "internalType": "uint256",
          "name": "_fromTokenId",
          "type": "uint256"
        },
        {
          "indexed": false,
          "internalType": "uint256",
          "name": "_toTokenId",
          "type": "uint256"
        }
      ],
      "name": "BatchMetadataUpdate",
      "type": "event"
    },
    {
      "anonymous": false,
      "inputs": [
        {
          "indexed": false,
          "internalType": "uint256",
          "name": "_tokenId",
          "type": "uint256"
        }
      ],
      "name": "MetadataUpdate",
      "type": "event"
    },
    {
      "anonymous": false,
      "inputs": [
        {
          "indexed": true,
          "internalType": "address",
          "name": "previousOwner",
          "type": "address"
        },
        {
          "indexed": true,
          "internalType": "address",
          "name": "newOwner",
          "type": "address"
        }
      ],
      "name": "OwnershipTransferred",
      "type": "event"
    },
    {
      "anonymous": false,
      "inputs": [
        {
          "indexed": true,
          "internalType": "address",
          "name": "from",
          "type": "address"
        },
        {
          "indexed": true,
          "internalType": "address",
          "name": "to",
          "type": "address"
        },
        {
          "indexed": true,
          "internalType": "uint256",
          "name": "tokenId",
          "type": "uint256"
        }
      ],
      "name": "Transfer",
      "type": "event"
    },
    {
      "anonymous": false,
      "inputs": [
        {
          "indexed": true,
          "internalType": "address",
          "name": "to",
          "type": "address"
        },
        {
          "indexed": false,
          "internalType": "uint256",
          "name": "tokenId",
          "type": "uint256"
        },
        {
          "indexed": false,
          "internalType": "string",
          "name": "tokenURI",
          "type": "string"
        }
      ],
      "name": "VehicleNFTMinted",
      "type": "event"
    },
    {
      "inputs": [
        {
          "internalType": "address",
          "name": "to",
          "type": "address"
        },
        {
          "internalType": "uint256",
          "name": "tokenId",
          "type": "uint256"
        }
      ],
      "name": "approve",
      "outputs": [],
      "stateMutability": "nonpayable",
      "type": "function"
    },
    {
      "inputs": [
        {
          "internalType": "address",
          "name": "owner",
          "type": "address"
        }
      ],
      "name": "balanceOf",
      "outputs": [
        {
          "internalType": "uint256",
          "name": "",
          "type": "uint256"
        }
      ],
      "stateMutability": "view",
      "type": "function"
    },
    {
      "inputs": [
        {
          "internalType": "uint256",
          "name": "tokenId",
          "type": "uint256"
        }
      ],
      "name": "getApproved",
      "outputs": [
        {
          "internalType": "address",
          "name": "",
          "type": "address"
        }
      ],
      "stateMutability": "view",
      "type": "function"
    },
    {
      "inputs": [
        {
          "internalType": "address",
          "name": "owner",
          "type": "address"
        },
        {
          "internalType": "address",
          "name": "operator",
          "type": "address"
        }
      ],
      "name": "isApprovedForAll",
      "outputs": [
        {
          "internalType": "bool",
          "name": "",
          "type": "bool"
        }
      ],
      "stateMutability": "view",
      "type": "function"
    },
    {
      "inputs": [
        {
          "internalType": "address",
          "name": "to",
          "type": "address"
        },
        {
          "internalType": "string",
          "name": "tokenURI",
          "type": "string"
        }
      ],
      "name": "mintVehicleNFT",
      "outputs": [
        {
          "internalType": "uint256",
          "name": "",
          "type": "uint256"
        }
      ],
      "stateMutability": "nonpayable",
      "type": "function"
    },
    {
      "inputs": [],
      "name": "name",
      "outputs": [
        {
          "internalType": "string",
          "name": "",
          "type": "string"
        }
      ],
      "stateMutability": "view",
      "type": "function"
    },
    {
      "inputs": [],
      "name": "owner",
      "outputs": [
        {
          "internalType": "address",
          "name": "",
          "type": "address"
        }
      ],
      "stateMutability": "view",
      "type": "function"
    },
    {
      "inputs": [
        {
          "internalType": "uint256",
          "name": "tokenId",
          "type": "uint256"
        }
      ],
      "name": "ownerOf",
      "outputs": [
        {
          "internalType": "address",
          "name": "",
          "type": "address"
        }
      ],
      "stateMutability": "view",
      "type": "function"
    },
    {
      "inputs": [],
      "name": "renounceOwnership",
      "outputs": [],
      "stateMutability": "nonpayable",
      "type": "function"
    },
    {
      "inputs": [
        {
          "internalType": "address",
          "name": "from",
          "type": "address"
        },
        {
          "internalType": "address",
          "name": "to",
          "type": "address"
        },
        {
          "internalType": "uint256",
          "name": "tokenId",
          "type": "uint256"
        }
      ],
      "name": "safeTransferFrom",
      "outputs": [],
      "stateMutability": "nonpayable",
      "type": "function"
    },
    {
      "inputs": [
        {
          "internalType": "address",
          "name": "from",
          "type": "address"
        },
        {
          "internalType": "address",
          "name": "to",
          "type": "address"
        },
        {
          "internalType": "uint256",
          "name": "tokenId",
          "type": "uint256"
        },
        {
          "internalType": "bytes",
          "name": "data",
          "type": "bytes"
        }
      ],
      "name": "safeTransferFrom",
      "outputs": [],
      "stateMutability": "nonpayable",
      "type": "function"
    },
    {
      "inputs": [
        {
          "internalType": "address",
          "name": "operator",
          "type": "address"
        },
        {
          "internalType": "bool",
          "name": "approved",
          "type": "bool"
        }
      ],
      "name": "setApprovalForAll",
      "outputs": [],
      "stateMutability": "nonpayable",
      "type": "function"
    },
    {
      "inputs": [
        {
          "internalType": "bytes4",
          "name": "interfaceId",
          "type": "bytes4"
        }
      ],
      "name": "supportsInterface",
      "outputs": [
        {
          "internalType": "bool",
          "name": "",
          "type": "bool"
        }
      ],
      "stateMutability": "view",
      "type": "function"
    },
    {
      "inputs": [],
      "name": "symbol",
      "outputs": [
        {
          "internalType": "string",
          "name": "",
          "type": "string"
        }
      ],
      "stateMutability": "view",
      "type": "function"
    },
    {
      "inputs": [
        {
          "internalType": "uint256",
          "name": "tokenId",
          "type": "uint256"
        }
      ],
      "name": "tokenURI",
      "outputs": [
        {
          "internalType": "string",
          "name": "",
          "type": "string"
        }
      ],
      "stateMutability": "view",
      "type": "function"
    },
    {
      "inputs": [],
      "name": "totalMinted",
      "outputs": [
        {
          "internalType": "uint256",
          "name": "",
          "type": "uint256"
        }
      ],
      "stateMutability": "view",
      "type": "function"
    },
    {
      "inputs": [
        {
          "internalType": "address",
          "name": "from",
          "type": "address"
        },
        {
          "internalType": "address",
          "name": "to",
          "type": "address"
        },
        {
          "internalType": "uint256",
          "name": "tokenId",
          "type": "uint256"
        }
      ],
      "name": "transferFrom",
      "outputs": [],
      "stateMutability": "nonpayable",
      "type": "function"
    },
    {
      "inputs": [
        {
          "internalType": "address",
          "name": "newOwner",
          "type": "address"
        }
      ],
      "name": "transferOwnership",
      "outputs": [],
      "stateMutability": "nonpayable",
      "type": "function"
    }
  ],
  "bytecode": "0x608060405234801561001057600080fd5b50336040518060400160405280600a81526020017f56656869636c654e4654000000000000000000000000000000000000000000008152506040518060400160405280600481526020017f5648434c00000000000000000000000000000000000000000000000000000000815250816000908161008d919061043d565b50806001908161009d919061043d565b505050600073ffffffffffffffffffffffffffffffffffffffff168173ffffffffffffffffffffffffffffffffffffffff16036101125760006040517f1e4fbdf70000000000000000000000000000000000000000000000000000000081526004016101099190610550565b60405180910390fd5b6101218161012760201b60201c565b5061056b565b6000600760009054906101000a900473ffffffffffffffffffffffffffffffffffffffff16905081600760006101000a81548173ffffffffffffffffffffffffffffffffffffffff021916908373ffffffffffffffffffffffffffffffffffffffff1602179055508173ffffffffffffffffffffffffffffffffffffffff168173ffffffffffffffffffffffffffffffffffffffff167f8be0079c531659141344cd1fd0a4f28419497f9722a3daafe3b4186f6b6457e060405160405180910390a35050565b600081519050919050565b7f4e487b7100000000000000000000000000000000000000000000000000000000600052604160045260246000fd5b7f4e487b7100000000000000000000000000000000000000000000000000000000600052602260045260246000fd5b6000600282049050600182168061026e57607f821691505b60208210810361028157610280610227565b5b50919050565b60008190508160005260206000209050919050565b60006020601f8301049050919050565b600082821b905092915050565b6000600883026102e97fffffffffffffffffffffffffffffffffffffffffffffffffffffffffffffffff826102ac565b6102f386836102ac565b95508019841693508086168417925050509392505050565b6000819050919050565b6000819050919050565b600061033a6103356103308461030b565b610315565b61030b565b9050919050565b6000819050919050565b6103548361031f565b61036861036082610341565b8484546102b9565b825550505050565b600090565b61037d610370565b61038881848461034b565b505050565b5b818110156103ac576103a1600082610375565b60018101905061038e565b5050565b601f8211156103f1576103c281610287565b6103cb8461029c565b810160208510156103da578190505b6103ee6103e68561029c565b83018261038d565b50505b505050565b600082821c905092915050565b6000610414600019846008026103f6565b1980831691505092915050565b600061042d8383610403565b9150826002028217905092915050565b610446826101ed565b67ffffffffffffffff81111561045f5761045e6101f8565b5b6104698254610256565b6104748282856103b0565b600060209050601f8311600181146104a75760008415610495578287015190505b61049f8582610421565b865550610507565b601f1984166104b586610287565b60005b828110156104dd578489015182556001820191506020850194506020810190506104b8565b868310156104fa57848901516104f6601f891682610403565b8355505b6001600288020188555050505b505050505050565b600073ffffffffffffffffffffffffffffffffffffffff82169050919050565b600061053a8261050f565b9050919050565b61054a8161052f565b82525050565b60006020820190506105656000830184610541565b92915050565b6128b78061057a6000396000f3fe608060405234801561001057600080fd5b50600436106101165760003560e01c8063715018a6116100a2578063a2309ff811610071578063a2309ff8146102df578063b88d4fde146102fd578063c87b56dd14610319578063e985e9c514610349578063f2fde38b1461037957610116565b8063715018a61461027d5780638da5cb5b1461028757806395d89b41146102a5578063a22cb465146102c357610116565b806323b872dd116100e957806323b872dd146101b557806342842e0e146101d15780636352211e146101ed5780636ba568651461021d57806370a082311461024d57610116565b806301ffc9a71461011b57806306fdde031461014b578063081812fc14610169578063095ea7b314610199575b600080fd5b61013560048036038101906101309190611c07565b610395565b6040516101429190611c4f565b60405180910390f35b6101536103f6565b6040516101609190611cfa565b60405180910390f35b610183600480360381019061017e9190611d52565b610488565b6040516101909190611dc0565b60405180910390f35b6101b360048036038101906101ae9190611e07565b6104a4565b005b6101cf60048036038101906101ca9190611e47565b6104ba565b005b6101eb60048036038101906101e69190611e47565b6105bc565b005b61020760048036038101906102029190611d52565b6105dc565b6040516102149190611dc0565b60405180910390f35b61023760048036038101906102329190611fcf565b6105ee565b604051610244919061203a565b60405180910390f35b61026760048036038101906102629190612055565b610738565b604051610274919061203a565b60405180910390f35b6102856107f2565b005b61028f610806565b60405161029c9190611dc0565b60405180910390f35b6102ad610830565b6040516102ba9190611cfa565b60405180910390f35b6102dd60048036038101906102d891906120ae565b6108c2565b005b6102e76108d8565b6040516102f4919061203a565b60405180910390f35b6103176004803603810190610312919061218f565b6108e2565b005b610333600480360381019061032e9190611d52565b6108ff565b6040516103409190611cfa565b60405180910390f35b610363600480360381019061035e9190612212565b610a12565b6040516103709190611c4f565b60405180910390f35b610393600480360381019061038e9190612055565b610aa6565b005b6000634906490660e01b7bffffffffffffffffffffffffffffffffffffffffffffffffffffffff1916827bffffffffffffffffffffffffffffffffffffffffffffffffffffffff191614806103ef57506103ee82610b2c565b5b9050919050565b60606000805461040590612281565b80601f016020809104026020016040519081016040528092919081815260200182805461043190612281565b801561047e5780601f106104535761010080835404028352916020019161047e565b820191906000526020600020905b81548152906001019060200180831161046157829003601f168201915b5050505050905090565b600061049382610c0e565b5061049d82610c96565b9050919050565b6104b682826104b1610cd3565b610cdb565b5050565b600073ffffffffffffffffffffffffffffffffffffffff168273ffffffffffffffffffffffffffffffffffffffff160361052c5760006040517f64a0ae920000000000000000000000000000000000000000000000000000000081526004016105239190611dc0565b60405180910390fd5b6000610540838361053b610cd3565b610ced565b90508373ffffffffffffffffffffffffffffffffffffffff168173ffffffffffffffffffffffffffffffffffffffff16146105b6578382826040517f64283d7b0000000000000000000000000000000000000000000000000000000081526004016105ad939291906122b2565b60405180910390fd5b50505050565b6105d7838383604051806020016040528060008152506108e2565b505050565b60006105e782610c0e565b9050919050565b60006105f8610f07565b600082511161063c576040517f08c379a000000000000000000000000000000000000000000000000000000000815260040161063390612335565b60405180910390fd5b600073ffffffffffffffffffffffffffffffffffffffff168373ffffffffffffffffffffffffffffffffffffffff16036106ab576040517f08c379a00000000000000000000000000000000000000000000000000000000081526004016106a2906123a1565b60405180910390fd5b600860008154809291906106be906123f0565b9190505550600060085490506106d48482610f8e565b6106de8184610fac565b8373ffffffffffffffffffffffffffffffffffffffff167f995c84098bf52db94445dd922a726b2de74e32718c4cb49fb91217a6958a88618285604051610726929190612438565b60405180910390a28091505092915050565b60008073ffffffffffffffffffffffffffffffffffffffff168273ffffffffffffffffffffffffffffffffffffffff16036107ab5760006040517f89c62b640000000000000000000000000000000000000000000000000000000081526004016107a29190611dc0565b60405180910390fd5b600360008373ffffffffffffffffffffffffffffffffffffffff1673ffffffffffffffffffffffffffffffffffffffff168152602001908152602001600020549050919050565b6107fa610f07565b6108046000611008565b565b6000600760009054906101000a900473ffffffffffffffffffffffffffffffffffffffff16905090565b60606001805461083f90612281565b80601f016020809104026020016040519081016040528092919081815260200182805461086b90612281565b80156108b85780601f1061088d576101008083540402835291602001916108b8565b820191906000526020600020905b81548152906001019060200180831161089b57829003601f168201915b5050505050905090565b6108d46108cd610cd3565b83836110ce565b5050565b6000600854905090565b6108ed8484846104ba565b6108f98484848461123d565b50505050565b606061090a82610c0e565b50600060066000848152602001908152602001600020805461092b90612281565b80601f016020809104026020016040519081016040528092919081815260200182805461095790612281565b80156109a45780601f10610979576101008083540402835291602001916109a4565b820191906000526020600020905b81548152906001019060200180831161098757829003601f168201915b5050505050905060006109b56113f4565b905060008151036109ca578192505050610a0d565b6000825111156109ff5780826040516020016109e79291906124a4565b60405160208183030381529060405292505050610a0d565b610a088461140b565b925050505b919050565b6000600560008473ffffffffffffffffffffffffffffffffffffffff1673ffffffffffffffffffffffffffffffffffffffff16815260200190815260200160002060008373ffffffffffffffffffffffffffffffffffffffff1673ffffffffffffffffffffffffffffffffffffffff16815260200190815260200160002060009054906101000a900460ff16905092915050565b610aae610f07565b600073ffffffffffffffffffffffffffffffffffffffff168173ffffffffffffffffffffffffffffffffffffffff1603610b205760006040517f1e4fbdf7000000000000000000000000000000000000000000000000000000008152600401610b179190611dc0565b60405180910390fd5b610b2981611008565b50565b60007f80ac58cd000000000000000000000000000000000000000000000000000000007bffffffffffffffffffffffffffffffffffffffffffffffffffffffff1916827bffffffffffffffffffffffffffffffffffffffffffffffffffffffff19161480610bf757507f5b5e139f000000000000000000000000000000000000000000000000000000007bffffffffffffffffffffffffffffffffffffffffffffffffffffffff1916827bffffffffffffffffffffffffffffffffffffffffffffffffffffffff1916145b80610c075750610c0682611474565b5b9050919050565b600080610c1a836114de565b9050600073ffffffffffffffffffffffffffffffffffffffff168173ffffffffffffffffffffffffffffffffffffffff1603610c8d57826040517f7e273289000000000000000000000000000000000000000000000000000000008152600401610c84919061203a565b60405180910390fd5b80915050919050565b60006004600083815260200190815260200160002060009054906101000a900473ffffffffffffffffffffffffffffffffffffffff169050919050565b600033905090565b610ce8838383600161151b565b505050565b600080610cf9846114de565b9050600073ffffffffffffffffffffffffffffffffffffffff168373ffffffffffffffffffffffffffffffffffffffff1614610d3b57610d3a8184866116e0565b5b600073ffffffffffffffffffffffffffffffffffffffff168173ffffffffffffffffffffffffffffffffffffffff1614610dcc57610d7d60008560008061151b565b6001600360008373ffffffffffffffffffffffffffffffffffffffff1673ffffffffffffffffffffffffffffffffffffffff168152602001908152602001600020600082825403925050819055505b600073ffffffffffffffffffffffffffffffffffffffff168573ffffffffffffffffffffffffffffffffffffffff1614610e4f576001600360008773ffffffffffffffffffffffffffffffffffffffff1673ffffffffffffffffffffffffffffffffffffffff168152602001908152602001600020600082825401925050819055505b846002600086815260200190815260200160002060006101000a81548173ffffffffffffffffffffffffffffffffffffffff021916908373ffffffffffffffffffffffffffffffffffffffff160217905550838573ffffffffffffffffffffffffffffffffffffffff168273ffffffffffffffffffffffffffffffffffffffff167fddf252ad1be2c89b69c2b068fc378daa952ba7f163c4a11628f55a4df523b3ef60405160405180910390a4809150509392505050565b610f0f610cd3565b73ffffffffffffffffffffffffffffffffffffffff16610f2d610806565b73ffffffffffffffffffffffffffffffffffffffff1614610f8c57610f50610cd3565b6040517f118cdaa7000000000000000000000000000000000000000000000000000000008152600401610f839190611dc0565b60405180910390fd5b565b610fa88282604051806020016040528060008152506117a4565b5050565b80600660008481526020019081526020016000209081610fcc9190612674565b507ff8e1a15aba9398e019f0b49df1a4fde98ee17ae345cb5f6b5e2c27f5033e8ce782604051610ffc919061203a565b60405180910390a15050565b6000600760009054906101000a900473ffffffffffffffffffffffffffffffffffffffff16905081600760006101000a81548173ffffffffffffffffffffffffffffffffffffffff021916908373ffffffffffffffffffffffffffffffffffffffff1602179055508173ffffffffffffffffffffffffffffffffffffffff168173ffffffffffffffffffffffffffffffffffffffff167f8be0079c531659141344cd1fd0a4f28419497f9722a3daafe3b4186f6b6457e060405160405180910390a35050565b600073ffffffffffffffffffffffffffffffffffffffff168273ffffffffffffffffffffffffffffffffffffffff160361113f57816040517f5b08ba180000000000000000000000000000000000000000000000000000000081526004016111369190611dc0565b60405180910390fd5b80600560008573ffffffffffffffffffffffffffffffffffffffff1673ffffffffffffffffffffffffffffffffffffffff16815260200190815260200160002060008473ffffffffffffffffffffffffffffffffffffffff1673ffffffffffffffffffffffffffffffffffffffff16815260200190815260200160002060006101000a81548160ff0219169083151502179055508173ffffffffffffffffffffffffffffffffffffffff168373ffffffffffffffffffffffffffffffffffffffff167f17307eab39ab6107e8899845ad3d59bd9653f200f220920489ca2b5937696c31836040516112309190611c4f565b60405180910390a3505050565b60008373ffffffffffffffffffffffffffffffffffffffff163b11156113ee578273ffffffffffffffffffffffffffffffffffffffff1663150b7a02611281610cd3565b8685856040518563ffffffff1660e01b81526004016112a3949392919061279b565b6020604051808303816000875af19250505080156112df57506040513d601f19601f820116820180604052508101906112dc91906127fc565b60015b611363573d806000811461130f576040519150601f19603f3d011682016040523d82523d6000602084013e611314565b606091505b50600081510361135b57836040517f64a0ae920000000000000000000000000000000000000000000000000000000081526004016113529190611dc0565b60405180910390fd5b805181602001fd5b63150b7a0260e01b7bffffffffffffffffffffffffffffffffffffffffffffffffffffffff1916817bffffffffffffffffffffffffffffffffffffffffffffffffffffffff1916146113ec57836040517f64a0ae920000000000000000000000000000000000000000000000000000000081526004016113e39190611dc0565b60405180910390fd5b505b50505050565b606060405180602001604052806000815250905090565b606061141682610c0e565b5060006114216113f4565b90506000815111611441576040518060200160405280600081525061146c565b8061144b846117c0565b60405160200161145c9291906124a4565b6040516020818303038152906040525b915050919050565b60007f01ffc9a7000000000000000000000000000000000000000000000000000000007bffffffffffffffffffffffffffffffffffffffffffffffffffffffff1916827bffffffffffffffffffffffffffffffffffffffffffffffffffffffff1916149050919050565b60006002600083815260200190815260200160002060009054906101000a900473ffffffffffffffffffffffffffffffffffffffff169050919050565b80806115545750600073ffffffffffffffffffffffffffffffffffffffff168273ffffffffffffffffffffffffffffffffffffffff1614155b1561168857600061156484610c0e565b9050600073ffffffffffffffffffffffffffffffffffffffff168373ffffffffffffffffffffffffffffffffffffffff16141580156115cf57508273ffffffffffffffffffffffffffffffffffffffff168173ffffffffffffffffffffffffffffffffffffffff1614155b80156115e257506115e08184610a12565b155b1561162457826040517fa9fbf51f00000000000000000000000000000000000000000000000000000000815260040161161b9190611dc0565b60405180910390fd5b811561168657838573ffffffffffffffffffffffffffffffffffffffff168273ffffffffffffffffffffffffffffffffffffffff167f8c5be1e5ebec7d5bd14f71427d1e84f3dd0314c0f7b2291e5b200ac8c7c3b92560405160405180910390a45b505b836004600085815260200190815260200160002060006101000a81548173ffffffffffffffffffffffffffffffffffffffff021916908373ffffffffffffffffffffffffffffffffffffffff16021790555050505050565b6116eb83838361188e565b61179f57600073ffffffffffffffffffffffffffffffffffffffff168373ffffffffffffffffffffffffffffffffffffffff160361176057806040517f7e273289000000000000000000000000000000000000000000000000000000008152600401611757919061203a565b60405180910390fd5b81816040517f177e802f000000000000000000000000000000000000000000000000000000008152600401611796929190612829565b60405180910390fd5b505050565b6117ae838361194f565b6117bb600084848461123d565b505050565b6060600060016117cf84611a48565b01905060008167ffffffffffffffff8111156117ee576117ed611ea4565b5b6040519080825280601f01601f1916602001820160405280156118205781602001600182028036833780820191505090505b509050600082602001820190505b600115611883578080600190039150507f3031323334353637383961626364656600000000000000000000000000000000600a86061a8153600a858161187757611876612852565b5b0494506000850361182e575b819350505050919050565b60008073ffffffffffffffffffffffffffffffffffffffff168373ffffffffffffffffffffffffffffffffffffffff161415801561194657508273ffffffffffffffffffffffffffffffffffffffff168473ffffffffffffffffffffffffffffffffffffffff16148061190757506119068484610a12565b5b8061194557508273ffffffffffffffffffffffffffffffffffffffff1661192d83610c96565b73ffffffffffffffffffffffffffffffffffffffff16145b5b90509392505050565b600073ffffffffffffffffffffffffffffffffffffffff168273ffffffffffffffffffffffffffffffffffffffff16036119c15760006040517f64a0ae920000000000000000000000000000000000000000000000000000000081526004016119b89190611dc0565b60405180910390fd5b60006119cf83836000610ced565b9050600073ffffffffffffffffffffffffffffffffffffffff168173ffffffffffffffffffffffffffffffffffffffff1614611a435760006040517f73c6ac6e000000000000000000000000000000000000000000000000000000008152600401611a3a9190611dc0565b60405180910390fd5b505050565b600080600090507a184f03e93ff9f4daa797ed6e38ed64bf6a1f0100000000000000008310611aa6577a184f03e93ff9f4daa797ed6e38ed64bf6a1f0100000000000000008381611a9c57611a9b612852565b5b0492506040810190505b6d04ee2d6d415b85acef81000000008310611ae3576d04ee2d6d415b85acef81000000008381611ad957611ad8612852565b5b0492506020810190505b662386f26fc100008310611b1257662386f26fc100008381611b0857611b07612852565b5b0492506010810190505b6305f5e1008310611b3b576305f5e1008381611b3157611b30612852565b5b0492506008810190505b6127108310611b60576127108381611b5657611b55612852565b5b0492506004810190505b60648310611b835760648381611b7957611b78612852565b5b0492506002810190505b600a8310611b92576001810190505b80915050919050565b6000604051905090565b600080fd5b600080fd5b60007fffffffff0000000000000000000000000000000000000000000000000000000082169050919050565b611be481611baf565b8114611bef57600080fd5b50565b600081359050611c0181611bdb565b92915050565b600060208284031215611c1d57611c1c611ba5565b5b6000611c2b84828501611bf2565b91505092915050565b60008115159050919050565b611c4981611c34565b82525050565b6000602082019050611c646000830184611c40565b92915050565b600081519050919050565b600082825260208201905092915050565b60005b83811015611ca4578082015181840152602081019050611c89565b60008484015250505050565b6000601f19601f8301169050919050565b6000611ccc82611c6a565b611cd68185611c75565b9350611ce6818560208601611c86565b611cef81611cb0565b840191505092915050565b60006020820190508181036000830152611d148184611cc1565b905092915050565b6000819050919050565b611d2f81611d1c565b8114611d3a57600080fd5b50565b600081359050611d4c81611d26565b92915050565b600060208284031215611d6857611d67611ba5565b5b6000611d7684828501611d3d565b91505092915050565b600073ffffffffffffffffffffffffffffffffffffffff82169050919050565b6000611daa82611d7f565b9050919050565b611dba81611d9f565b82525050565b6000602082019050611dd56000830184611db1565b92915050565b611de481611d9f565b8114611def57600080fd5b50565b600081359050611e0181611ddb565b92915050565b60008060408385031215611e1e57611e1d611ba5565b5b6000611e2c85828601611df2565b9250506020611e3d85828601611d3d565b9150509250929050565b600080600060608486031215611e6057611e5f611ba5565b5b6000611e6e86828701611df2565b9350506020611e7f86828701611df2565b9250506040611e9086828701611d3d565b9150509250925092565b600080fd5b600080fd5b7f4e487b7100000000000000000000000000000000000000000000000000000000600052604160045260246000fd5b611edc82611cb0565b810181811067ffffffffffffffff82111715611efb57611efa611ea4565b5b80604052505050565b6000611f0e611b9b565b9050611f1a8282611ed3565b919050565b600067ffffffffffffffff821115611f3a57611f39611ea4565b5b611f4382611cb0565b9050602081019050919050565b82818337600083830152505050565b6000611f72611f6d84611f1f565b611f04565b905082815260208101848484011115611f8e57611f8d611e9f565b5b611f99848285611f50565b509392505050565b600082601f830112611fb657611fb5611e9a565b5b8135611fc6848260208601611f5f565b91505092915050565b60008060408385031215611fe657611fe5611ba5565b5b6000611ff485828601611df2565b925050602083013567ffffffffffffffff81111561201557612014611baa565b5b61202185828601611fa1565b9150509250929050565b61203481611d1c565b82525050565b600060208201905061204f600083018461202b565b92915050565b60006020828403121561206b5761206a611ba5565b5b600061207984828501611df2565b91505092915050565b61208b81611c34565b811461209657600080fd5b50565b6000813590506120a881612082565b92915050565b600080604083850312156120c5576120c4611ba5565b5b60006120d385828601611df2565b92505060206120e485828601612099565b9150509250929050565b600067ffffffffffffffff82111561210957612108611ea4565b5b61211282611cb0565b9050602081019050919050565b600061213261212d846120ee565b611f04565b90508281526020810184848401111561214e5761214d611e9f565b5b612159848285611f50565b509392505050565b600082601f83011261217657612175611e9a565b5b813561218684826020860161211f565b91505092915050565b600080600080608085870312156121a9576121a8611ba5565b5b60006121b787828801611df2565b94505060206121c887828801611df2565b93505060406121d987828801611d3d565b925050606085013567ffffffffffffffff8111156121fa576121f9611baa565b5b61220687828801612161565b91505092959194509250565b6000806040838503121561222957612228611ba5565b5b600061223785828601611df2565b925050602061224885828601611df2565b9150509250929050565b7f4e487b7100000000000000000000000000000000000000000000000000000000600052602260045260246000fd5b6000600282049050600182168061229957607f821691505b6020821081036122ac576122ab612252565b5b50919050565b60006060820190506122c76000830186611db1565b6122d4602083018561202b565b6122e16040830184611db1565b949350505050565b7f546f6b656e205552492069732072657175697265640000000000000000000000600082015250565b600061231f601583611c75565b915061232a826122e9565b602082019050919050565b6000602082019050818103600083015261234e81612312565b9050919050565b7f496e76616c696420726563697069656e74206164647265737300000000000000600082015250565b600061238b601983611c75565b915061239682612355565b602082019050919050565b600060208201905081810360008301526123ba8161237e565b9050919050565b7f4e487b7100000000000000000000000000000000000000000000000000000000600052601160045260246000fd5b60006123fb82611d1c565b91507fffffffffffffffffffffffffffffffffffffffffffffffffffffffffffffffff820361242d5761242c6123c1565b5b600182019050919050565b600060408201905061244d600083018561202b565b818103602083015261245f8184611cc1565b90509392505050565b600081905092915050565b600061247e82611c6a565b6124888185612468565b9350612498818560208601611c86565b80840191505092915050565b60006124b08285612473565b91506124bc8284612473565b91508190509392505050565b60008190508160005260206000209050919050565b60006020601f8301049050919050565b600082821b905092915050565b60006008830261252a7fffffffffffffffffffffffffffffffffffffffffffffffffffffffffffffffff826124ed565b61253486836124ed565b95508019841693508086168417925050509392505050565b6000819050919050565b600061257161256c61256784611d1c565b61254c565b611d1c565b9050919050565b6000819050919050565b61258b83612556565b61259f61259782612578565b8484546124fa565b825550505050565b600090565b6125b46125a7565b6125bf818484612582565b505050565b5b818110156125e3576125d86000826125ac565b6001810190506125c5565b5050565b601f821115612628576125f9816124c8565b612602846124dd565b81016020851015612611578190505b61262561261d856124dd565b8301826125c4565b50505b505050565b600082821c905092915050565b600061264b6000198460080261262d565b1980831691505092915050565b6000612664838361263a565b9150826002028217905092915050565b61267d82611c6a565b67ffffffffffffffff81111561269657612695611ea4565b5b6126a08254612281565b6126ab8282856125e7565b600060209050601f8311600181146126de57600084156126cc578287015190505b6126d68582612658565b86555061273e565b601f1984166126ec866124c8565b60005b82811015612714578489015182556001820191506020850194506020810190506126ef565b86831015612731578489015161272d601f89168261263a565b8355505b6001600288020188555050505b505050505050565b600081519050919050565b600082825260208201905092915050565b600061276d82612746565b6127778185612751565b9350612787818560208601611c86565b61279081611cb0565b840191505092915050565b60006080820190506127b06000830187611db1565b6127bd6020830186611db1565b6127ca604083018561202b565b81810360608301526127dc8184612762565b905095945050505050565b6000815190506127f681611bdb565b92915050565b60006020828403121561281257612811611ba5565b5b6000612820848285016127e7565b91505092915050565b600060408201905061283e6000830185611db1565b61284b602083018461202b565b9392505050565b7f4e487b7100000000000000000000000000000000000000000000000000000000600052601260045260246000fdfea2646970667358221220ad6cc937a6a1145c2349047313753e601f1d927e98c62c0c7e5fa92f5a6b6c7664736f6c634300081e0033",
  "linkReferences": {},
  "deployedLinkReferences": {}
}